{
  "_format": "hh-sol-artifact-1",
  "contractName": "TokenExchange",
  "sourceName": "contracts/exchange.sol",
  "abi": [
    {
      "inputs": [],
      "stateMutability": "nonpayable",
      "type": "constructor"
    },
    {
      "anonymous": false,
      "inputs": [
        {
          "indexed": true,
          "internalType": "address",
          "name": "previousOwner",
          "type": "address"
        },
        {
          "indexed": true,
          "internalType": "address",
          "name": "newOwner",
          "type": "address"
        }
      ],
      "name": "OwnershipTransferred",
      "type": "event"
    },
    {
      "inputs": [
        {
          "internalType": "uint256",
          "name": "max_exchange_rate",
          "type": "uint256"
        },
        {
          "internalType": "uint256",
          "name": "min_exchange_rate",
          "type": "uint256"
        }
      ],
      "name": "addLiquidity",
      "outputs": [],
      "stateMutability": "payable",
      "type": "function"
    },
    {
      "inputs": [
        {
          "internalType": "uint256",
          "name": "amountTokens",
          "type": "uint256"
        }
      ],
      "name": "createPool",
      "outputs": [],
      "stateMutability": "payable",
      "type": "function"
    },
    {
      "inputs": [],
      "name": "exchange_name",
      "outputs": [
        {
          "internalType": "string",
          "name": "",
          "type": "string"
        }
      ],
      "stateMutability": "view",
      "type": "function"
    },
    {
      "inputs": [],
      "name": "getSwapFee",
      "outputs": [
        {
          "internalType": "uint256",
          "name": "",
          "type": "uint256"
        },
        {
          "internalType": "uint256",
          "name": "",
          "type": "uint256"
        }
      ],
      "stateMutability": "view",
      "type": "function"
    },
    {
      "inputs": [],
      "name": "owner",
      "outputs": [
        {
          "internalType": "address",
          "name": "",
          "type": "address"
        }
      ],
      "stateMutability": "view",
      "type": "function"
    },
    {
      "inputs": [
        {
          "internalType": "uint256",
          "name": "max_exchange_rate",
          "type": "uint256"
        },
        {
          "internalType": "uint256",
          "name": "min_exchange_rate",
          "type": "uint256"
        }
      ],
      "name": "removeAllLiquidity",
      "outputs": [],
      "stateMutability": "payable",
      "type": "function"
    },
    {
      "inputs": [
        {
          "internalType": "uint256",
          "name": "amountETH",
          "type": "uint256"
        },
        {
          "internalType": "uint256",
          "name": "max_exchange_rate",
          "type": "uint256"
        },
        {
          "internalType": "uint256",
          "name": "min_exchange_rate",
          "type": "uint256"
        }
      ],
      "name": "removeLiquidity",
      "outputs": [],
      "stateMutability": "payable",
      "type": "function"
    },
    {
      "inputs": [],
      "name": "renounceOwnership",
      "outputs": [],
      "stateMutability": "nonpayable",
      "type": "function"
    },
    {
      "inputs": [
        {
          "internalType": "uint256",
          "name": "max_exchange_rate",
          "type": "uint256"
        }
      ],
      "name": "swapETHForTokens",
      "outputs": [],
      "stateMutability": "payable",
      "type": "function"
    },
    {
      "inputs": [
        {
          "internalType": "uint256",
          "name": "amountTokens",
          "type": "uint256"
        },
        {
          "internalType": "uint256",
          "name": "max_exchange_rate",
          "type": "uint256"
        }
      ],
      "name": "swapTokensForETH",
      "outputs": [],
      "stateMutability": "payable",
      "type": "function"
    },
    {
      "inputs": [],
      "name": "token",
      "outputs": [
        {
          "internalType": "contract Token",
          "name": "",
          "type": "address"
        }
      ],
      "stateMutability": "view",
      "type": "function"
    },
    {
      "inputs": [
        {
          "internalType": "address",
          "name": "newOwner",
          "type": "address"
        }
      ],
      "name": "transferOwnership",
      "outputs": [],
      "stateMutability": "nonpayable",
      "type": "function"
    }
  ],
  "bytecode": "0x60806040526040518060400160405280600e81526020017f4368696c6c2045786368616e6765000000000000000000000000000000000000815250600190816200004a919062000496565b50735fbdb2315678afecb367f032d93f642f64180aa3600260006101000a81548173ffffffffffffffffffffffffffffffffffffffff021916908373ffffffffffffffffffffffffffffffffffffffff160217905550600260009054906101000a900473ffffffffffffffffffffffffffffffffffffffff16600360006101000a81548173ffffffffffffffffffffffffffffffffffffffff021916908373ffffffffffffffffffffffffffffffffffffffff16021790555060006004556000600555600360085560646009556000600b553480156200012957600080fd5b506200014a6200013e6200015060201b60201c565b6200015860201b60201c565b6200057d565b600033905090565b60008060009054906101000a900473ffffffffffffffffffffffffffffffffffffffff169050816000806101000a81548173ffffffffffffffffffffffffffffffffffffffff021916908373ffffffffffffffffffffffffffffffffffffffff1602179055508173ffffffffffffffffffffffffffffffffffffffff168173ffffffffffffffffffffffffffffffffffffffff167f8be0079c531659141344cd1fd0a4f28419497f9722a3daafe3b4186f6b6457e060405160405180910390a35050565b600081519050919050565b7f4e487b7100000000000000000000000000000000000000000000000000000000600052604160045260246000fd5b7f4e487b7100000000000000000000000000000000000000000000000000000000600052602260045260246000fd5b600060028204905060018216806200029e57607f821691505b602082108103620002b457620002b362000256565b5b50919050565b60008190508160005260206000209050919050565b60006020601f8301049050919050565b600082821b905092915050565b6000600883026200031e7fffffffffffffffffffffffffffffffffffffffffffffffffffffffffffffffff82620002df565b6200032a8683620002df565b95508019841693508086168417925050509392505050565b6000819050919050565b6000819050919050565b600062000377620003716200036b8462000342565b6200034c565b62000342565b9050919050565b6000819050919050565b620003938362000356565b620003ab620003a2826200037e565b848454620002ec565b825550505050565b600090565b620003c2620003b3565b620003cf81848462000388565b505050565b5b81811015620003f757620003eb600082620003b8565b600181019050620003d5565b5050565b601f82111562000446576200041081620002ba565b6200041b84620002cf565b810160208510156200042b578190505b620004436200043a85620002cf565b830182620003d4565b50505b505050565b600082821c905092915050565b60006200046b600019846008026200044b565b1980831691505092915050565b600062000486838362000458565b9150826002028217905092915050565b620004a1826200021c565b67ffffffffffffffff811115620004bd57620004bc62000227565b5b620004c9825462000285565b620004d6828285620003fb565b600060209050601f8311600181146200050e5760008415620004f9578287015190505b62000505858262000478565b86555062000575565b601f1984166200051e86620002ba565b60005b82811015620005485784890151825560018201915060208501945060208101905062000521565b8683101562000568578489015162000564601f89168262000458565b8355505b6001600288020188555050505b505050505050565b6122e1806200058d6000396000f3fe6080604052600436106100a75760003560e01c80639cd441da116100645780639cd441da1461015e578063a22280a61461017a578063d4cadf6814610196578063f2fde38b146101c2578063f694f7d1146101eb578063fc0c546a14610216576100a7565b80632eab2841146100ac57806358ad6de4146100c8578063715018a6146100e45780638259e6a0146100fb578063857620e1146101175780638da5cb5b14610133575b600080fd5b6100c660048036038101906100c1919061166c565b610241565b005b6100e260048036038101906100dd9190611699565b610419565b005b3480156100f057600080fd5b506100f9610487565b005b6101156004803603810190610110919061166c565b61049b565b005b610131600480360381019061012c91906116d9565b61084b565b005b34801561013f57600080fd5b50610148610c7a565b604051610155919061176d565b60405180910390f35b61017860048036038101906101739190611699565b610ca3565b005b610194600480360381019061018f9190611699565b610fdf565b005b3480156101a257600080fd5b506101ab6112df565b6040516101b9929190611797565b60405180910390f35b3480156101ce57600080fd5b506101e960048036038101906101e491906117ec565b6112f0565b005b3480156101f757600080fd5b50610200611373565b60405161020d91906118a9565b60405180910390f35b34801561022257600080fd5b5061022b611401565b604051610238919061192a565b60405180910390f35b60003490506000600954600854836102599190611974565b61026391906119e5565b8261026e9190611a16565b90506000816005546102809190611a4a565b9050600081600a5461029291906119e5565b90506000816004546102a49190611a16565b90506000600454670de0b6b3a76400006005546102c19190611974565b6102cb91906119e5565b905086811115610310576040517f08c379a000000000000000000000000000000000000000000000000000000000815260040161030790611aca565b60405180910390fd5b600160045461031f9190611a16565b821115610361576040517f08c379a000000000000000000000000000000000000000000000000000000000815260040161035890611b36565b60405180910390fd5b8360058190555082600481905550600360009054906101000a900473ffffffffffffffffffffffffffffffffffffffff1673ffffffffffffffffffffffffffffffffffffffff1663a9059cbb33846040518363ffffffff1660e01b81526004016103cc929190611b56565b6020604051808303816000875af11580156103eb573d6000803e3d6000fd5b505050506040513d601f19601f8201168201806040525081019061040f9190611bb7565b5050505050505050565b6000600b54600660003373ffffffffffffffffffffffffffffffffffffffff1673ffffffffffffffffffffffffffffffffffffffff1681526020019081526020016000205461046891906119e5565b6005546104759190611974565b905061048281848461084b565b505050565b61048f611427565b61049960006114a5565b565b6104a3611427565b6000600454146104e8576040517f08c379a00000000000000000000000000000000000000000000000000000000081526004016104df90611c30565b60405180910390fd5b60006005541461052d576040517f08c379a000000000000000000000000000000000000000000000000000000000815260040161052490611c9c565b60405180910390fd5b60003411610570576040517f08c379a000000000000000000000000000000000000000000000000000000000815260040161056790611d08565b60405180910390fd5b6000600360009054906101000a900473ffffffffffffffffffffffffffffffffffffffff1673ffffffffffffffffffffffffffffffffffffffff166370a08231336040518263ffffffff1660e01b81526004016105cd919061176d565b602060405180830381865afa1580156105ea573d6000803e3d6000fd5b505050506040513d601f19601f8201168201806040525081019061060e9190611d3d565b905080821115610653576040517f08c379a000000000000000000000000000000000000000000000000000000000815260040161064a90611ddc565b60405180910390fd5b60008211610696576040517f08c379a000000000000000000000000000000000000000000000000000000000815260040161068d90611e48565b60405180910390fd5b600360009054906101000a900473ffffffffffffffffffffffffffffffffffffffff1673ffffffffffffffffffffffffffffffffffffffff166323b872dd3330856040518463ffffffff1660e01b81526004016106f593929190611e68565b6020604051808303816000875af1158015610714573d6000803e3d6000fd5b505050506040513d601f19601f820116820180604052508101906107389190611bb7565b50600360009054906101000a900473ffffffffffffffffffffffffffffffffffffffff1673ffffffffffffffffffffffffffffffffffffffff166370a08231306040518263ffffffff1660e01b8152600401610794919061176d565b602060405180830381865afa1580156107b1573d6000803e3d6000fd5b505050506040513d601f19601f820116820180604052508101906107d59190611d3d565b600481905550346005819055506005546004546107f29190611974565b600a81905550620186a0600b819055506064600660003373ffffffffffffffffffffffffffffffffffffffff1673ffffffffffffffffffffffffffffffffffffffff168152602001908152602001600020819055505050565b600160055461085a9190611a16565b83111561089c576040517f08c379a000000000000000000000000000000000000000000000000000000000815260040161089390611eeb565b60405180910390fd5b60006108a784611569565b90506000600554600b54866108bc9190611974565b6108c691906119e5565b905080600b60008282546108da9190611a16565b9250508190555080600660003373ffffffffffffffffffffffffffffffffffffffff1673ffffffffffffffffffffffffffffffffffffffff168152602001908152602001600020541015610963576040517f08c379a000000000000000000000000000000000000000000000000000000000815260040161095a90611f57565b60405180910390fd5b6000600554670de0b6b3a764000060045461097e9190611974565b61098891906119e5565b905084811115801561099a5750808411155b6109d9576040517f08c379a00000000000000000000000000000000000000000000000000000000081526004016109d090611fc3565b60405180910390fd5b6000600554476109e99190611a16565b90506000600454600360009054906101000a900473ffffffffffffffffffffffffffffffffffffffff1673ffffffffffffffffffffffffffffffffffffffff166370a08231306040518263ffffffff1660e01b8152600401610a4b919061176d565b602060405180830381865afa158015610a68573d6000803e3d6000fd5b505050506040513d601f19601f82011682018060405250810190610a8c9190611d3d565b610a969190611a16565b90506000600b5485610aa891906119e5565b83610ab39190611974565b90506000600b5486610ac591906119e5565b83610ad09190611974565b905085600660003373ffffffffffffffffffffffffffffffffffffffff1673ffffffffffffffffffffffffffffffffffffffff1681526020019081526020016000206000828254610b219190611a16565b925050819055508960056000828254610b3a9190611a16565b925050819055508660046000828254610b539190611a16565b92505081905550600454600554610b6a9190611974565b600a81905550600360009054906101000a900473ffffffffffffffffffffffffffffffffffffffff1673ffffffffffffffffffffffffffffffffffffffff1663a9059cbb33838a610bbb9190611a4a565b6040518363ffffffff1660e01b8152600401610bd8929190611b56565b6020604051808303816000875af1158015610bf7573d6000803e3d6000fd5b505050506040513d601f19601f82011682018060405250810190610c1b9190611bb7565b503373ffffffffffffffffffffffffffffffffffffffff166108fc838c610c429190611a4a565b9081150290604051600060405180830381858888f19350505050158015610c6d573d6000803e3d6000fd5b5050505050505050505050565b60008060009054906101000a900473ffffffffffffffffffffffffffffffffffffffff16905090565b60003411610ce6576040517f08c379a0000000000000000000000000000000000000000000000000000000008152600401610cdd9061202f565b60405180910390fd5b6000610cf134611569565b90506000600360009054906101000a900473ffffffffffffffffffffffffffffffffffffffff1673ffffffffffffffffffffffffffffffffffffffff166370a08231336040518263ffffffff1660e01b8152600401610d50919061176d565b602060405180830381865afa158015610d6d573d6000803e3d6000fd5b505050506040513d601f19601f82011682018060405250810190610d919190611d3d565b905081811015610dd6576040517f08c379a0000000000000000000000000000000000000000000000000000000008152600401610dcd906120c1565b60405180910390fd5b6000600554670de0b6b3a7640000600454610df19190611974565b610dfb91906119e5565b9050848111158015610e0d5750808411155b610e4c576040517f08c379a0000000000000000000000000000000000000000000000000000000008152600401610e4390611aca565b60405180910390fd5b600080600b5403610e5f57349050610e7d565b600554600b5434610e709190611974565b610e7a91906119e5565b90505b80600660003373ffffffffffffffffffffffffffffffffffffffff1673ffffffffffffffffffffffffffffffffffffffff1681526020019081526020016000206000828254610ecc9190611a4a565b9250508190555080600b6000828254610ee59190611a4a565b925050819055503460056000828254610efe9190611a4a565b925050819055508360046000828254610f179190611a4a565b92505081905550600454600554610f2e9190611974565b600a81905550600360009054906101000a900473ffffffffffffffffffffffffffffffffffffffff1673ffffffffffffffffffffffffffffffffffffffff166323b872dd3330876040518463ffffffff1660e01b8152600401610f9393929190611e68565b6020604051808303816000875af1158015610fb2573d6000803e3d6000fd5b505050506040513d601f19601f82011682018060405250810190610fd69190611bb7565b50505050505050565b6000600360009054906101000a900473ffffffffffffffffffffffffffffffffffffffff1673ffffffffffffffffffffffffffffffffffffffff166370a08231336040518263ffffffff1660e01b815260040161103c919061176d565b602060405180830381865afa158015611059573d6000803e3d6000fd5b505050506040513d601f19601f8201168201806040525081019061107d9190611d3d565b9050808311156110c2576040517f08c379a00000000000000000000000000000000000000000000000000000000081526004016110b99061212d565b60405180910390fd5b60006009546008546110d491906119e5565b846110df9190611974565b846110ea9190611a16565b90506000816004546110fc9190611a4a565b9050600081600a5461110e91906119e5565b90506000816005546111209190611a16565b90506000600554670de0b6b3a764000060045461113d9190611974565b61114791906119e5565b90508681111561118c576040517f08c379a000000000000000000000000000000000000000000000000000000000815260040161118390611fc3565b60405180910390fd5b600160055461119b9190611a16565b8211156111dd576040517f08c379a00000000000000000000000000000000000000000000000000000000081526004016111d490611eeb565b60405180910390fd5b82600581905550836004819055503373ffffffffffffffffffffffffffffffffffffffff166108fc839081150290604051600060405180830381858888f19350505050158015611231573d6000803e3d6000fd5b50600360009054906101000a900473ffffffffffffffffffffffffffffffffffffffff1673ffffffffffffffffffffffffffffffffffffffff166323b872dd33308b6040518463ffffffff1660e01b815260040161129193929190611e68565b6020604051808303816000875af11580156112b0573d6000803e3d6000fd5b505050506040513d601f19601f820116820180604052508101906112d49190611bb7565b505050505050505050565b600080600854600954915091509091565b6112f8611427565b600073ffffffffffffffffffffffffffffffffffffffff168173ffffffffffffffffffffffffffffffffffffffff1603611367576040517f08c379a000000000000000000000000000000000000000000000000000000000815260040161135e906121bf565b60405180910390fd5b611370816114a5565b50565b600180546113809061220e565b80601f01602080910402602001604051908101604052809291908181526020018280546113ac9061220e565b80156113f95780601f106113ce576101008083540402835291602001916113f9565b820191906000526020600020905b8154815290600101906020018083116113dc57829003601f168201915b505050505081565b600360009054906101000a900473ffffffffffffffffffffffffffffffffffffffff1681565b61142f611629565b73ffffffffffffffffffffffffffffffffffffffff1661144d610c7a565b73ffffffffffffffffffffffffffffffffffffffff16146114a3576040517f08c379a000000000000000000000000000000000000000000000000000000000815260040161149a9061228b565b60405180910390fd5b565b60008060009054906101000a900473ffffffffffffffffffffffffffffffffffffffff169050816000806101000a81548173ffffffffffffffffffffffffffffffffffffffff021916908373ffffffffffffffffffffffffffffffffffffffff1602179055508173ffffffffffffffffffffffffffffffffffffffff168173ffffffffffffffffffffffffffffffffffffffff167f8be0079c531659141344cd1fd0a4f28419497f9722a3daafe3b4186f6b6457e060405160405180910390a35050565b6000804783600360009054906101000a900473ffffffffffffffffffffffffffffffffffffffff1673ffffffffffffffffffffffffffffffffffffffff166370a08231306040518263ffffffff1660e01b81526004016115c9919061176d565b602060405180830381865afa1580156115e6573d6000803e3d6000fd5b505050506040513d601f19601f8201168201806040525081019061160a9190611d3d565b6116149190611974565b61161e91906119e5565b905080915050919050565b600033905090565b600080fd5b6000819050919050565b61164981611636565b811461165457600080fd5b50565b60008135905061166681611640565b92915050565b60006020828403121561168257611681611631565b5b600061169084828501611657565b91505092915050565b600080604083850312156116b0576116af611631565b5b60006116be85828601611657565b92505060206116cf85828601611657565b9150509250929050565b6000806000606084860312156116f2576116f1611631565b5b600061170086828701611657565b935050602061171186828701611657565b925050604061172286828701611657565b9150509250925092565b600073ffffffffffffffffffffffffffffffffffffffff82169050919050565b60006117578261172c565b9050919050565b6117678161174c565b82525050565b6000602082019050611782600083018461175e565b92915050565b61179181611636565b82525050565b60006040820190506117ac6000830185611788565b6117b96020830184611788565b9392505050565b6117c98161174c565b81146117d457600080fd5b50565b6000813590506117e6816117c0565b92915050565b60006020828403121561180257611801611631565b5b6000611810848285016117d7565b91505092915050565b600081519050919050565b600082825260208201905092915050565b60005b83811015611853578082015181840152602081019050611838565b60008484015250505050565b6000601f19601f8301169050919050565b600061187b82611819565b6118858185611824565b9350611895818560208601611835565b61189e8161185f565b840191505092915050565b600060208201905081810360008301526118c38184611870565b905092915050565b6000819050919050565b60006118f06118eb6118e68461172c565b6118cb565b61172c565b9050919050565b6000611902826118d5565b9050919050565b6000611914826118f7565b9050919050565b61192481611909565b82525050565b600060208201905061193f600083018461191b565b92915050565b7f4e487b7100000000000000000000000000000000000000000000000000000000600052601160045260246000fd5b600061197f82611636565b915061198a83611636565b925082820261199881611636565b915082820484148315176119af576119ae611945565b5b5092915050565b7f4e487b7100000000000000000000000000000000000000000000000000000000600052601260045260246000fd5b60006119f082611636565b91506119fb83611636565b925082611a0b57611a0a6119b6565b5b828204905092915050565b6000611a2182611636565b9150611a2c83611636565b9250828203905081811115611a4457611a43611945565b5b92915050565b6000611a5582611636565b9150611a6083611636565b9250828201905080821115611a7857611a77611945565b5b92915050565b7f4c6f6920736c6970706167650000000000000000000000000000000000000000600082015250565b6000611ab4600c83611824565b9150611abf82611a7e565b602082019050919050565b60006020820190508181036000830152611ae381611aa7565b9050919050565b7f6b686f6e6720647520746f6b656e2074726f6e6720706f6f6c00000000000000600082015250565b6000611b20601983611824565b9150611b2b82611aea565b602082019050919050565b60006020820190508181036000830152611b4f81611b13565b9050919050565b6000604082019050611b6b600083018561175e565b611b786020830184611788565b9392505050565b60008115159050919050565b611b9481611b7f565b8114611b9f57600080fd5b50565b600081519050611bb181611b8b565b92915050565b600060208284031215611bcd57611bcc611631565b5b6000611bdb84828501611ba2565b91505092915050565b7f546f6b656e20726573657276657320776173206e6f7420300000000000000000600082015250565b6000611c1a601883611824565b9150611c2582611be4565b602082019050919050565b60006020820190508181036000830152611c4981611c0d565b9050919050565b7f45544820726573657276657320776173206e6f7420302e000000000000000000600082015250565b6000611c86601783611824565b9150611c9182611c50565b602082019050919050565b60006020820190508181036000830152611cb581611c79565b9050919050565b7f4e6565642065746820746f2063726561746520706f6f6c2e0000000000000000600082015250565b6000611cf2601883611824565b9150611cfd82611cbc565b602082019050919050565b60006020820190508181036000830152611d2181611ce5565b9050919050565b600081519050611d3781611640565b92915050565b600060208284031215611d5357611d52611631565b5b6000611d6184828501611d28565b91505092915050565b7f4e6f74206861766520656e6f75676820746f6b656e7320746f2063726561746560008201527f2074686520706f6f6c0000000000000000000000000000000000000000000000602082015250565b6000611dc6602983611824565b9150611dd182611d6a565b604082019050919050565b60006020820190508181036000830152611df581611db9565b9050919050565b7f4e65656420746f6b656e7320746f2063726561746520706f6f6c2e0000000000600082015250565b6000611e32601b83611824565b9150611e3d82611dfc565b602082019050919050565b60006020820190508181036000830152611e6181611e25565b9050919050565b6000606082019050611e7d600083018661175e565b611e8a602083018561175e565b611e976040830184611788565b949350505050565b7f6b686f6e67206475206574682074726f6e6720706f6f6c000000000000000000600082015250565b6000611ed5601783611824565b9150611ee082611e9f565b602082019050919050565b60006020820190508181036000830152611f0481611ec8565b9050919050565b7f6b686f6e67206475207368617265206465207275740000000000000000000000600082015250565b6000611f41601583611824565b9150611f4c82611f0b565b602082019050919050565b60006020820190508181036000830152611f7081611f34565b9050919050565b7f6c6f6920736c6970706167650000000000000000000000000000000000000000600082015250565b6000611fad600c83611824565b9150611fb882611f77565b602082019050919050565b60006020820190508181036000830152611fdc81611fa0565b9050919050565b7f6e6f7420656e6f75676800000000000000000000000000000000000000000000600082015250565b6000612019600a83611824565b915061202482611fe3565b602082019050919050565b600060208201905081810360008301526120488161200c565b9050919050565b7f4b68c3b46e6720c491e1bba720746f6b656e20c491e1bb83207468c3aa6d207660008201527fc3a06f20706f6f6c000000000000000000000000000000000000000000000000602082015250565b60006120ab602883611824565b91506120b68261204f565b604082019050919050565b600060208201905081810360008301526120da8161209e565b9050919050565b7f6b686f6e6720647520746f6b656e206465207377617000000000000000000000600082015250565b6000612117601683611824565b9150612122826120e1565b602082019050919050565b600060208201905081810360008301526121468161210a565b9050919050565b7f4f776e61626c653a206e6577206f776e657220697320746865207a65726f206160008201527f6464726573730000000000000000000000000000000000000000000000000000602082015250565b60006121a9602683611824565b91506121b48261214d565b604082019050919050565b600060208201905081810360008301526121d88161219c565b9050919050565b7f4e487b7100000000000000000000000000000000000000000000000000000000600052602260045260246000fd5b6000600282049050600182168061222657607f821691505b602082108103612239576122386121df565b5b50919050565b7f4f776e61626c653a2063616c6c6572206973206e6f7420746865206f776e6572600082015250565b6000612275602083611824565b91506122808261223f565b602082019050919050565b600060208201905081810360008301526122a481612268565b905091905056fea264697066735822122069bcf264a6e525b94d27aa1e053c88e5583383bc3fbb0f02ff8f1779385d80c864736f6c63430008110033",
  "linkReferences": {},
  "deployedLinkReferences": {}
}